{
  "contractName": "Ballot",
  "abi": [
    {
      "constant": true,
      "inputs": [
        {
          "name": "",
          "type": "uint256"
        }
      ],
      "name": "proposals",
      "outputs": [
        {
          "name": "name",
          "type": "bytes32"
        },
        {
          "name": "voteCount",
          "type": "uint256"
        }
      ],
      "payable": false,
      "stateMutability": "view",
      "type": "function"
    },
    {
      "constant": true,
      "inputs": [],
      "name": "chairperson",
      "outputs": [
        {
          "name": "",
          "type": "address"
        }
      ],
      "payable": false,
      "stateMutability": "view",
      "type": "function"
    },
    {
      "constant": true,
      "inputs": [
        {
          "name": "",
          "type": "address"
        }
      ],
      "name": "voters",
      "outputs": [
        {
          "name": "canVote",
          "type": "uint256"
        },
        {
          "name": "voted",
          "type": "bool"
        },
        {
          "name": "vote",
          "type": "uint256"
        }
      ],
      "payable": false,
      "stateMutability": "view",
      "type": "function"
    },
    {
      "inputs": [
        {
          "name": "proposalNames",
          "type": "bytes32[]"
        }
      ],
      "payable": false,
      "stateMutability": "nonpayable",
      "type": "constructor"
    },
    {
      "constant": false,
      "inputs": [
        {
          "name": "voter",
          "type": "address"
        }
      ],
      "name": "giveRightToVote",
      "outputs": [],
      "payable": false,
      "stateMutability": "nonpayable",
      "type": "function"
    },
    {
      "constant": false,
      "inputs": [
        {
          "name": "proposal",
          "type": "uint256"
        }
      ],
      "name": "vote",
      "outputs": [],
      "payable": false,
      "stateMutability": "nonpayable",
      "type": "function"
    },
    {
      "constant": true,
      "inputs": [],
      "name": "winningProposal",
      "outputs": [
        {
          "name": "winningProposal_",
          "type": "uint256"
        }
      ],
      "payable": false,
      "stateMutability": "view",
      "type": "function"
    },
    {
      "constant": true,
      "inputs": [],
      "name": "winnerName",
      "outputs": [
        {
          "name": "winnerName_",
          "type": "bytes32"
        }
      ],
      "payable": false,
      "stateMutability": "view",
      "type": "function"
    }
  ],
  "bytecode": "0x6060604052341561000f57600080fd5b604051610784380380610784833981016040528080518201919050506000336000806101000a81548173ffffffffffffffffffffffffffffffffffffffff021916908373ffffffffffffffffffffffffffffffffffffffff16021790555060018060008060009054906101000a900473ffffffffffffffffffffffffffffffffffffffff1673ffffffffffffffffffffffffffffffffffffffff1673ffffffffffffffffffffffffffffffffffffffff16815260200190815260200160002060000181905550600090505b815181101561016757600280548060010182816100f7919061016e565b916000526020600020906002020160006040805190810160405280868681518110151561012057fe5b9060200190602002015160001916815260200160008152509091909150600082015181600001906000191690556020820151816001015550505080806001019150506100da565b50506101cf565b81548183558181151161019b5760020281600202836000526020600020918201910161019a91906101a0565b5b505050565b6101cc91905b808211156101c8576000808201600090556001820160009055506002016101a6565b5090565b90565b6105a6806101de6000396000f300606060405260043610610083576000357c0100000000000000000000000000000000000000000000000000000000900463ffffffff1680630121b93f14610088578063013cf08b146100ab5780632e4176cf146100f1578063609ff1bd146101465780639e7b8d611461016f578063a3ec138d146101a8578063e2ba53f014610207575b600080fd5b341561009357600080fd5b6100a96004808035906020019091905050610238565b005b34156100b657600080fd5b6100cc60048080359060200190919050506102f5565b6040518083600019166000191681526020018281526020019250505060405180910390f35b34156100fc57600080fd5b610104610328565b604051808273ffffffffffffffffffffffffffffffffffffffff1673ffffffffffffffffffffffffffffffffffffffff16815260200191505060405180910390f35b341561015157600080fd5b61015961034d565b6040518082815260200191505060405180910390f35b341561017a57600080fd5b6101a6600480803573ffffffffffffffffffffffffffffffffffffffff169060200190919050506103c8565b005b34156101b357600080fd5b6101df600480803573ffffffffffffffffffffffffffffffffffffffff16906020019091905050610514565b6040518084815260200183151515158152602001828152602001935050505060405180910390f35b341561021257600080fd5b61021a61054b565b60405180826000191660001916815260200191505060405180910390f35b6000600160003373ffffffffffffffffffffffffffffffffffffffff1673ffffffffffffffffffffffffffffffffffffffff16815260200190815260200160002090508060010160009054906101000a900460ff1615151561029957600080fd5b60018160010160006101000a81548160ff02191690831515021790555081816002018190555080600001546002838154811015156102d357fe5b9060005260206000209060020201600101600082825401925050819055505050565b60028181548110151561030457fe5b90600052602060002090600202016000915090508060000154908060010154905082565b6000809054906101000a900473ffffffffffffffffffffffffffffffffffffffff1681565b6000806000809150600090505b6002805490508110156103c3578160028281548110151561037757fe5b90600052602060002090600202016001015411156103b65760028181548110151561039e57fe5b90600052602060002090600202016001015491508092505b808060010191505061035a565b505090565b6000809054906101000a900473ffffffffffffffffffffffffffffffffffffffff1673ffffffffffffffffffffffffffffffffffffffff163373ffffffffffffffffffffffffffffffffffffffff161480156104715750600160008273ffffffffffffffffffffffffffffffffffffffff1673ffffffffffffffffffffffffffffffffffffffff16815260200190815260200160002060010160009054906101000a900460ff16155b80156104bf57506000600160008373ffffffffffffffffffffffffffffffffffffffff1673ffffffffffffffffffffffffffffffffffffffff16815260200190815260200160002060000154145b15156104ca57600080fd5b60018060008373ffffffffffffffffffffffffffffffffffffffff1673ffffffffffffffffffffffffffffffffffffffff1681526020019081526020016000206000018190555050565b60016020528060005260406000206000915090508060000154908060010160009054906101000a900460ff16908060020154905083565b6000600261055761034d565b81548110151561056357fe5b9060005260206000209060020201600001549050905600a165627a7a723058208fe463c1be3fe35f4b5e45a307fe7274d5b907cd60183ef8e164da87b1d0b5ca0029",
  "source": "pragma solidity ^0.4.16;\n///@title Simple Voting - no delegation. \ncontract Ballot {\n    // This declares a new complex type which will \n    // be used for variables later.\n    // It will represent a single voter.\n    struct Voter {\n        uint canVote; // canVote after being give(n)RightToVote\n        bool voted; // if true, that person already voted \n        uint vote; // index of the voted proposal\n    }\n    // This is a type for a single proposal.\n    struct Proposal {\n        bytes32 name; // short name (up to 32 bytes) \n        uint voteCount; // number of accumulated votes\n    }\n    address public chairperson;\n\n    // This declares a state variable that\n    // stores a `Voter` struct for each possible address. \n    mapping(address => Voter) public voters;\n\n    // A dynamically-sized array of `Proposal` structs.\n    Proposal[] public proposals;\n\n    ///Create a new ballot to choose one of `proposalNames`.\n    function Ballot(bytes32[] proposalNames) public { \n        chairperson = msg.sender; \n        voters[chairperson].canVote = 1;\n\n        // For each of the provided proposal names,\n        // create a new proposal object and add it\n        // to the end of the array.\n        for (uint i = 0; i < proposalNames.length; i++) {\n            // `Proposal({...})` creates a temporary\n            // Proposal object and `proposals.push(...)`\n            // appends it to the end of `proposals`.\n            proposals.push(Proposal({\n                name: proposalNames[i],\n                voteCount: 0\n            })); \n        }\n    }\n\n    // Give `voter` the right to vote on this ballot. \n    // May only be called by `chairperson`.\n    function giveRightToVote(address voter) public {\n        // If the argument of `require` evaluates to `false`,\n        // it terminates and reverts all changes to\n        // the state and to Ether balances.\n        // This consumes all gas in old EVM versions, but not anymore.\n        // It is often a good idea to use this if functions are\n        // called incorrectly.\n        require(\n            (msg.sender == chairperson) &&\n            !voters[voter].voted &&\n            (voters[voter].canVote == 0)\n        );\n        voters[voter].canVote = 1;\n    }\n\n    // to proposal `proposals[proposal].name`.\n    function vote(uint proposal) public {\n        Voter storage sender = voters[msg.sender]; \n        require(!sender.voted);\n        sender.voted = true;\n        sender.vote = proposal;\n        \n        // If `proposal` is out of the range of the array, \n        // this will throw automatically and revert all\n        // changes.\n        proposals[proposal].voteCount += sender.canVote;\n    }\n\n    // @dev Computes the winning proposal taking all\n    // previous votes into account.\n    function winningProposal() public view returns (uint winningProposal_)\n    {\n        uint winningVoteCount = 0;\n        for (uint p = 0; p < proposals.length; p++) {\n            if (proposals[p].voteCount > winningVoteCount) {\n                winningVoteCount = proposals[p].voteCount; \n                winningProposal_ = p;\n            } \n        }\n    }\n\n    // Calls winningProposal() function to get the index\n    // of the winner contained in the proposals array and then \n    // returns the name of the winner previous votes into account.\n    function winnerName() public view returns (bytes32 winnerName_)\n    {\n        winnerName_ = proposals[winningProposal()].name;\n    }\n}",
  "sourcePath": "/Users/rbadapanda/Onedrive/blockChain_thinkPredict/blockChain-voting/contracts/Ballot.sol",
  "compiler": {
    "name": "solc",
    "version": "0.4.19+commit.c4cbbb05.Emscripten.clang"
  },
  "schemaVersion": "2.0.0",
  "updatedAt": "2018-04-15T22:25:56.850Z"
}