{
  "contractName": "Ballot",
  "abi": [
    {
      "constant": true,
      "inputs": [
        {
          "name": "",
          "type": "uint256"
        }
      ],
      "name": "proposals",
      "outputs": [
        {
          "name": "name",
          "type": "bytes32"
        },
        {
          "name": "voteCount",
          "type": "uint256"
        }
      ],
      "payable": false,
      "stateMutability": "view",
      "type": "function"
    },
    {
      "constant": true,
      "inputs": [],
      "name": "chairperson",
      "outputs": [
        {
          "name": "",
          "type": "address"
        }
      ],
      "payable": false,
      "stateMutability": "view",
      "type": "function"
    },
    {
      "constant": true,
      "inputs": [
        {
          "name": "",
          "type": "address"
        }
      ],
      "name": "voters",
      "outputs": [
        {
          "name": "canVote",
          "type": "uint256"
        },
        {
          "name": "voted",
          "type": "bool"
        },
        {
          "name": "vote",
          "type": "uint256"
        }
      ],
      "payable": false,
      "stateMutability": "view",
      "type": "function"
    },
    {
      "inputs": [],
      "payable": false,
      "stateMutability": "nonpayable",
      "type": "constructor"
    },
    {
      "anonymous": false,
      "inputs": [
        {
          "indexed": true,
          "name": "_from",
          "type": "address"
        },
        {
          "indexed": false,
          "name": "success",
          "type": "bool"
        }
      ],
      "name": "candidateAdded",
      "type": "event"
    },
    {
      "constant": true,
      "inputs": [],
      "name": "getCandidateHash",
      "outputs": [
        {
          "name": "cadidateHash",
          "type": "bytes32"
        }
      ],
      "payable": false,
      "stateMutability": "view",
      "type": "function"
    },
    {
      "constant": false,
      "inputs": [
        {
          "name": "candidateName",
          "type": "bytes32"
        }
      ],
      "name": "AddCandidate",
      "outputs": [
        {
          "name": "success",
          "type": "bool"
        }
      ],
      "payable": false,
      "stateMutability": "nonpayable",
      "type": "function"
    },
    {
      "constant": false,
      "inputs": [
        {
          "name": "voters1",
          "type": "address[]"
        }
      ],
      "name": "giveRightToVote",
      "outputs": [],
      "payable": false,
      "stateMutability": "nonpayable",
      "type": "function"
    },
    {
      "constant": false,
      "inputs": [
        {
          "name": "proposal",
          "type": "uint256"
        }
      ],
      "name": "vote",
      "outputs": [],
      "payable": false,
      "stateMutability": "nonpayable",
      "type": "function"
    },
    {
      "constant": true,
      "inputs": [],
      "name": "winningProposal",
      "outputs": [
        {
          "name": "winningProposal_",
          "type": "uint256"
        }
      ],
      "payable": false,
      "stateMutability": "view",
      "type": "function"
    },
    {
      "constant": true,
      "inputs": [],
      "name": "winnerName",
      "outputs": [
        {
          "name": "winnerName_",
          "type": "bytes32"
        }
      ],
      "payable": false,
      "stateMutability": "view",
      "type": "function"
    }
  ],
  "bytecode": "0x6060604052341561000f57600080fd5b336000806101000a81548173ffffffffffffffffffffffffffffffffffffffff021916908373ffffffffffffffffffffffffffffffffffffffff16021790555060018060008060009054906101000a900473ffffffffffffffffffffffffffffffffffffffff1673ffffffffffffffffffffffffffffffffffffffff1673ffffffffffffffffffffffffffffffffffffffff16815260200190815260200160002060000181905550610823806100c66000396000f300606060405260043610610099576000357c0100000000000000000000000000000000000000000000000000000000900463ffffffff1680630121b93f1461009e578063013cf08b146100c15780632e4176cf14610107578063609ff1bd1461015c5780638581682914610185578063a36b5985146101df578063a3ec138d1461021e578063b2572f091461027d578063e2ba53f0146102ae575b600080fd5b34156100a957600080fd5b6100bf60048080359060200190919050506102df565b005b34156100cc57600080fd5b6100e2600480803590602001909190505061039c565b6040518083600019166000191681526020018281526020019250505060405180910390f35b341561011257600080fd5b61011a6103cf565b604051808273ffffffffffffffffffffffffffffffffffffffff1673ffffffffffffffffffffffffffffffffffffffff16815260200191505060405180910390f35b341561016757600080fd5b61016f6103f4565b6040518082815260200191505060405180910390f35b341561019057600080fd5b6101dd60048080359060200190820180359060200190808060200260200160405190810160405280939291908181526020018383602002808284378201915050505050509190505061046f565b005b34156101ea57600080fd5b6102046004808035600019169060200190919050506105f5565b604051808215151515815260200191505060405180910390f35b341561022957600080fd5b610255600480803573ffffffffffffffffffffffffffffffffffffffff16906020019091905050610700565b6040518084815260200183151515158152602001828152602001935050505060405180910390f35b341561028857600080fd5b610290610737565b60405180826000191660001916815260200191505060405180910390f35b34156102b957600080fd5b6102c1610767565b60405180826000191660001916815260200191505060405180910390f35b6000600160003373ffffffffffffffffffffffffffffffffffffffff1673ffffffffffffffffffffffffffffffffffffffff16815260200190815260200160002090508060010160009054906101000a900460ff1615151561034057600080fd5b60018160010160006101000a81548160ff021916908315150217905550818160020181905550806000015460038381548110151561037a57fe5b9060005260206000209060020201600101600082825401925050819055505050565b6003818154811015156103ab57fe5b90600052602060002090600202016000915090508060000154908060010154905082565b6000809054906101000a900473ffffffffffffffffffffffffffffffffffffffff1681565b6000806000809150600090505b60038054905081101561046a578160038281548110151561041e57fe5b906000526020600020906002020160010154111561045d5760038181548110151561044557fe5b90600052602060002090600202016001015491508092505b8080600101915050610401565b505090565b600080600091505b82518210156105f057828281518110151561048e57fe5b9060200190602002015190506000809054906101000a900473ffffffffffffffffffffffffffffffffffffffff1673ffffffffffffffffffffffffffffffffffffffff163373ffffffffffffffffffffffffffffffffffffffff161480156105435750600160008273ffffffffffffffffffffffffffffffffffffffff1673ffffffffffffffffffffffffffffffffffffffff16815260200190815260200160002060010160009054906101000a900460ff16155b801561059157506000600160008373ffffffffffffffffffffffffffffffffffffffff1673ffffffffffffffffffffffffffffffffffffffff16815260200190815260200160002060000154145b151561059c57600080fd5b60018060008373ffffffffffffffffffffffffffffffffffffffff1673ffffffffffffffffffffffffffffffffffffffff168152602001908152602001600020600001819055508180600101925050610477565b505050565b60008060009150806002600085600019166000191681526020019081526020016000205414156106a557600160026000856000191660001916815260200190815260200160002081905550600380548060010182816106549190610796565b91600052602060002090600202016000604080519081016040528087600019168152602001600081525090919091506000820151816000019060001916905560208201518160010155505050600191505b3373ffffffffffffffffffffffffffffffffffffffff167f4cf06c1747a197782cc296f601214708eb419805e3ea1b9450b241c6c6b3c4de83604051808215151515815260200191505060405180910390a281915050919050565b60016020528060005260406000206000915090508060000154908060010160009054906101000a900460ff16908060020154905083565b6000600360016003805490500381548110151561075057fe5b906000526020600020906002020160000154905090565b600060036107736103f4565b81548110151561077f57fe5b906000526020600020906002020160000154905090565b8154818355818115116107c3576002028160020283600052602060002091820191016107c291906107c8565b5b505050565b6107f491905b808211156107f0576000808201600090556001820160009055506002016107ce565b5090565b905600a165627a7a72305820cbadc787cffd14248c7d6f5fb233bac5e7b927e27bee0b36b2914fb7285c89320029",
  "source": "pragma solidity ^0.4.19;\n///@title Simple Voting - no delegation.\ncontract Ballot {\n    // This declares a new complex type which will\n    // be used for variables later.\n    // It will represent a single voter.\n    struct Voter {\n        uint canVote; // canVote after being give(n)RightToVote\n        bool voted; // if true, that person already voted\n        uint vote; // index of the voted proposal\n    }\n    // This is a type for a single proposal.\n    struct Proposal {\n        bytes32 name; // short name (up to 32 bytes)\n        uint voteCount; // number of accumulated votes\n    }\n    address public chairperson;\n\n    // This declares a state variable that\n    // stores a `Voter` struct for each possible address.\n    mapping(address => Voter) public voters;\n    //to keep track of duplicates\n    mapping(bytes32 => uint) private candidateLookup;\n\n\n    // A dynamically-sized array of `Proposal` structs.\n    Proposal[] public proposals;\n\n    //get last added candidate name - for validation\n    function getCandidateHash() external view returns(bytes32 cadidateHash) {\n        return proposals[proposals.length-1].name;\n    }\n\n    ///Create a new ballot to choose one of `proposalNames`.\n    function Ballot() public {\n        chairperson = msg.sender;\n        voters[chairperson].canVote = 1;\n    }\n\n    //Assumed non-empty candidate Name.\n    function AddCandidate(bytes32 candidateName) external returns (bool success) {\n        success = false;\n        uint empty;\n\n        if(candidateLookup[candidateName] == empty){\n            // we can add!\n            candidateLookup[candidateName] = 1;\n            proposals.push(Proposal({\n                name: candidateName,\n                voteCount: 0\n            }));\n            success = true;\n        }\n\n        // raise an event we can filter by our address, return\n        candidateAdded(msg.sender, success);\n        return success;\n    }\n\n    event candidateAdded(address indexed _from, bool success);\n\n    // Give a list of voters the right to vote on this ballot.\n    // ***Solidity-ism: voters is not allowed -- shadows declaration of voters: mapping(address => Voter) public voters\n    // May only be called by `chairperson`.\n    function giveRightToVote(address[] voters1) public {\n        // If the argument of `require` evaluates to `false`,\n        // it terminates and reverts all changes to\n        // the state and to Ether balances.\n        // This consumes all gas in old EVM versions, but not anymore.\n        // It is often a good idea to use this if functions are\n        // called incorrectly.\n        for (uint i = 0; i < voters1.length; i++) {\n            address voter = voters1[i];\n            require(\n                (msg.sender == chairperson) &&\n                !voters[voter].voted &&\n                (voters[voter].canVote == 0)\n            );\n            voters[voter].canVote = 1;\n        }\n    }\n\n    // to proposal `proposals[proposal].name`.\n    function vote(uint proposal) public {\n        Voter storage sender = voters[msg.sender];\n        require(!sender.voted);\n        sender.voted = true;\n        sender.vote = proposal;\n\n        // If `proposal` is out of the range of the array,\n        // this will throw automatically and revert all\n        // changes.\n        proposals[proposal].voteCount += sender.canVote;\n    }\n\n    // @dev Computes the winning proposal taking all\n    // previous votes into account.\n    function winningProposal() public view returns (uint winningProposal_)\n    {\n        uint winningVoteCount = 0;\n        for (uint p = 0; p < proposals.length; p++) {\n            if (proposals[p].voteCount > winningVoteCount) {\n                winningVoteCount = proposals[p].voteCount;\n                winningProposal_ = p;\n            }\n        }\n    }\n\n    // Calls winningProposal() function to get the index\n    // of the winner contained in the proposals array and then\n    // returns the name of the winner previous votes into account.\n    function winnerName() public view returns (bytes32 winnerName_)\n    {\n        winnerName_ = proposals[winningProposal()].name;\n    }\n}",
  "sourcePath": "/Users/rbadapanda/Onedrive/blockChain_thinkPredict/blockChain-voting/contracts/Ballot.sol",
  "compiler": {
    "name": "solc",
    "version": "0.4.19+commit.c4cbbb05.Emscripten.clang"
  },
  "schemaVersion": "2.0.0",
  "updatedAt": "2018-04-18T03:59:35.771Z"
}