{
  "contractName": "HelloContract",
  "abi": [
    {
      "payable": true,
      "stateMutability": "payable",
      "type": "fallback"
    },
    {
      "anonymous": false,
      "inputs": [
        {
          "indexed": true,
          "name": "_from",
          "type": "address"
        },
        {
          "indexed": false,
          "name": "success",
          "type": "bool"
        }
      ],
      "name": "candidateAdded",
      "type": "event"
    },
    {
      "constant": true,
      "inputs": [
        {
          "name": "candidateName",
          "type": "string"
        }
      ],
      "name": "getCandidateHash",
      "outputs": [
        {
          "name": "cadidateHash",
          "type": "bytes32"
        }
      ],
      "payable": false,
      "stateMutability": "view",
      "type": "function"
    },
    {
      "constant": false,
      "inputs": [
        {
          "name": "candidateName",
          "type": "string"
        }
      ],
      "name": "AddCandidate",
      "outputs": [
        {
          "name": "success",
          "type": "bool"
        }
      ],
      "payable": false,
      "stateMutability": "nonpayable",
      "type": "function"
    }
  ],
  "bytecode": "0x6060604052341561000f57600080fd5b6102488061001e6000396000f30060606040526004361061004c576000357c0100000000000000000000000000000000000000000000000000000000900463ffffffff1680631ec8a1cf1461004e5780637e54b8e214610098575b005b341561005957600080fd5b61007a600480803590602001908201803590602001919091929050506100de565b60405180826000191660001916815260200191505060405180910390f35b34156100a357600080fd5b6100c46004808035906020019082018035906020019190919290505061011f565b604051808215151515815260200191505060405180910390f35b6000808383905011156101185760018383604051808383808284378201915050925050509081526020016040518091039020549050610119565b5b92915050565b6000806000915060008484905011156101bb57806000191660018585604051808383808284378201915050925050509081526020016040518091039020546000191614156101b6578383604051808383808284378201915050925050506040518091039020600185856040518083838082843782019150509250505090815260200160405180910390208160001916905550600191505b6101c0565b600091505b3373ffffffffffffffffffffffffffffffffffffffff167f4cf06c1747a197782cc296f601214708eb419805e3ea1b9450b241c6c6b3c4de83604051808215151515815260200191505060405180910390a281915050929150505600a165627a7a72305820024d072a3bb66e212aeb7f8fb2e968addd36b53bdb5d185c22d1f682de2bb60e0029",
  "source": "pragma solidity ^0.4.19; \n\ncontract HelloContract {\n    mapping(bytes32 => uint) private votes;\n    mapping(string => bytes32) private candidates;\n\n    function getCandidateHash(string candidateName) external view returns(bytes32 cadidateHash) {\n        if (bytes(candidateName).length > 0) {\n            return candidates[candidateName];\n        }\n    }\n\n    function AddCandidate(string candidateName) external returns (bool success) {\n        success = false;\n        // check to see if the candidate name is already done.\n        if (bytes(candidateName).length > 0) {\n            bytes32 empty;\n            if (candidates[candidateName] == empty) {\n                // we can add!\n                candidates[candidateName] = keccak256(candidateName);\n                success = true;\n            }\n        } else {\n            // we can't add -- no name.\n            success = false; // we can't add -- already there.\n        }\n\n        // raise an event we can filter by our address, return\n        candidateAdded(msg.sender, success);\n        return success;\n        \n    }\n\n    function() external payable {}\n\n    event candidateAdded(address indexed _from, bool success);\n}\n",
  "sourcePath": "/Users/rbadapanda/Onedrive/blockChain_thinkPredict/blockChain-voting/contracts/HelloContract.sol",
  "compiler": {
    "name": "solc",
    "version": "0.4.19+commit.c4cbbb05.Emscripten.clang"
  },
  "schemaVersion": "2.0.0",
  "updatedAt": "2018-04-18T05:55:49.923Z"
}